{
  "_format": "hh-sol-artifact-1",
  "contractName": "AssetToken",
  "sourceName": "contracts/AssetToken.sol",
  "abi": [
    {
      "inputs": [],
      "stateMutability": "nonpayable",
      "type": "constructor"
    },
    {
      "anonymous": false,
      "inputs": [
        {
          "indexed": true,
          "internalType": "address",
          "name": "owner",
          "type": "address"
        },
        {
          "indexed": true,
          "internalType": "address",
          "name": "spender",
          "type": "address"
        },
        {
          "indexed": false,
          "internalType": "uint256",
          "name": "value",
          "type": "uint256"
        }
      ],
      "name": "Approval",
      "type": "event"
    },
    {
      "anonymous": false,
      "inputs": [
        {
          "indexed": true,
          "internalType": "address",
          "name": "owner",
          "type": "address"
        },
        {
          "indexed": false,
          "internalType": "uint256",
          "name": "amount",
          "type": "uint256"
        }
      ],
      "name": "AssetCreated",
      "type": "event"
    },
    {
      "anonymous": false,
      "inputs": [
        {
          "indexed": true,
          "internalType": "address",
          "name": "owner",
          "type": "address"
        },
        {
          "indexed": false,
          "internalType": "uint256",
          "name": "amount",
          "type": "uint256"
        }
      ],
      "name": "RewardClaimed",
      "type": "event"
    },
    {
      "anonymous": false,
      "inputs": [
        {
          "indexed": true,
          "internalType": "address",
          "name": "from",
          "type": "address"
        },
        {
          "indexed": true,
          "internalType": "address",
          "name": "to",
          "type": "address"
        },
        {
          "indexed": false,
          "internalType": "uint256",
          "name": "value",
          "type": "uint256"
        }
      ],
      "name": "Transfer",
      "type": "event"
    },
    {
      "inputs": [
        {
          "internalType": "address",
          "name": "",
          "type": "address"
        },
        {
          "internalType": "address",
          "name": "",
          "type": "address"
        }
      ],
      "name": "allowance",
      "outputs": [
        {
          "internalType": "uint256",
          "name": "",
          "type": "uint256"
        }
      ],
      "stateMutability": "view",
      "type": "function"
    },
    {
      "inputs": [
        {
          "internalType": "address",
          "name": "_spender",
          "type": "address"
        },
        {
          "internalType": "uint256",
          "name": "_value",
          "type": "uint256"
        }
      ],
      "name": "approve",
      "outputs": [
        {
          "internalType": "bool",
          "name": "success",
          "type": "bool"
        }
      ],
      "stateMutability": "nonpayable",
      "type": "function"
    },
    {
      "inputs": [
        {
          "internalType": "address",
          "name": "",
          "type": "address"
        }
      ],
      "name": "assets",
      "outputs": [
        {
          "internalType": "uint256",
          "name": "amount",
          "type": "uint256"
        },
        {
          "internalType": "uint256",
          "name": "lastClaimed",
          "type": "uint256"
        }
      ],
      "stateMutability": "view",
      "type": "function"
    },
    {
      "inputs": [
        {
          "internalType": "address",
          "name": "",
          "type": "address"
        }
      ],
      "name": "balanceOf",
      "outputs": [
        {
          "internalType": "uint256",
          "name": "",
          "type": "uint256"
        }
      ],
      "stateMutability": "view",
      "type": "function"
    },
    {
      "inputs": [
        {
          "internalType": "address",
          "name": "owner",
          "type": "address"
        }
      ],
      "name": "calculateReward",
      "outputs": [
        {
          "internalType": "uint256",
          "name": "",
          "type": "uint256"
        }
      ],
      "stateMutability": "view",
      "type": "function"
    },
    {
      "inputs": [],
      "name": "claimReward",
      "outputs": [],
      "stateMutability": "nonpayable",
      "type": "function"
    },
    {
      "inputs": [],
      "name": "decimals",
      "outputs": [
        {
          "internalType": "uint8",
          "name": "",
          "type": "uint8"
        }
      ],
      "stateMutability": "view",
      "type": "function"
    },
    {
      "inputs": [
        {
          "internalType": "uint256",
          "name": "amount",
          "type": "uint256"
        }
      ],
      "name": "deposit",
      "outputs": [],
      "stateMutability": "nonpayable",
      "type": "function"
    },
    {
      "inputs": [],
      "name": "name",
      "outputs": [
        {
          "internalType": "string",
          "name": "",
          "type": "string"
        }
      ],
      "stateMutability": "view",
      "type": "function"
    },
    {
      "inputs": [],
      "name": "rewardPool",
      "outputs": [
        {
          "internalType": "uint256",
          "name": "",
          "type": "uint256"
        }
      ],
      "stateMutability": "view",
      "type": "function"
    },
    {
      "inputs": [],
      "name": "rewardRate",
      "outputs": [
        {
          "internalType": "uint256",
          "name": "",
          "type": "uint256"
        }
      ],
      "stateMutability": "view",
      "type": "function"
    },
    {
      "inputs": [
        {
          "internalType": "address",
          "name": "",
          "type": "address"
        }
      ],
      "name": "rewards",
      "outputs": [
        {
          "internalType": "uint256",
          "name": "",
          "type": "uint256"
        }
      ],
      "stateMutability": "view",
      "type": "function"
    },
    {
      "inputs": [],
      "name": "symbol",
      "outputs": [
        {
          "internalType": "string",
          "name": "",
          "type": "string"
        }
      ],
      "stateMutability": "view",
      "type": "function"
    },
    {
      "inputs": [],
      "name": "totalSupply",
      "outputs": [
        {
          "internalType": "uint256",
          "name": "",
          "type": "uint256"
        }
      ],
      "stateMutability": "view",
      "type": "function"
    },
    {
      "inputs": [
        {
          "internalType": "address",
          "name": "_to",
          "type": "address"
        },
        {
          "internalType": "uint256",
          "name": "_value",
          "type": "uint256"
        }
      ],
      "name": "transfer",
      "outputs": [
        {
          "internalType": "bool",
          "name": "success",
          "type": "bool"
        }
      ],
      "stateMutability": "nonpayable",
      "type": "function"
    },
    {
      "inputs": [
        {
          "internalType": "address",
          "name": "_from",
          "type": "address"
        },
        {
          "internalType": "address",
          "name": "_to",
          "type": "address"
        },
        {
          "internalType": "uint256",
          "name": "_value",
          "type": "uint256"
        }
      ],
      "name": "transferFrom",
      "outputs": [
        {
          "internalType": "bool",
          "name": "success",
          "type": "bool"
        }
      ],
      "stateMutability": "nonpayable",
      "type": "function"
    }
  ],
  "bytecode": "0x60806040526040518060400160405280600a81526020017f4173736574546f6b656e00000000000000000000000000000000000000000000815250600090816200004a91906200040f565b506040518060400160405280600381526020017f4153540000000000000000000000000000000000000000000000000000000000815250600190816200009191906200040f565b506012600260006101000a81548160ff021916908360ff16021790555067016345785d8a000060045569021e19e0c9bab2400000600555348015620000d557600080fd5b50600554600381905550600554600660003073ffffffffffffffffffffffffffffffffffffffff1673ffffffffffffffffffffffffffffffffffffffff168152602001908152602001600020819055503073ffffffffffffffffffffffffffffffffffffffff16600073ffffffffffffffffffffffffffffffffffffffff167fddf252ad1be2c89b69c2b068fc378daa952ba7f163c4a11628f55a4df523b3ef60055460405162000187919062000507565b60405180910390a362000524565b600081519050919050565b7f4e487b7100000000000000000000000000000000000000000000000000000000600052604160045260246000fd5b7f4e487b7100000000000000000000000000000000000000000000000000000000600052602260045260246000fd5b600060028204905060018216806200021757607f821691505b6020821081036200022d576200022c620001cf565b5b50919050565b60008190508160005260206000209050919050565b60006020601f8301049050919050565b600082821b905092915050565b600060088302620002977fffffffffffffffffffffffffffffffffffffffffffffffffffffffffffffffff8262000258565b620002a3868362000258565b95508019841693508086168417925050509392505050565b6000819050919050565b6000819050919050565b6000620002f0620002ea620002e484620002bb565b620002c5565b620002bb565b9050919050565b6000819050919050565b6200030c83620002cf565b620003246200031b82620002f7565b84845462000265565b825550505050565b600090565b6200033b6200032c565b6200034881848462000301565b505050565b5b8181101562000370576200036460008262000331565b6001810190506200034e565b5050565b601f821115620003bf57620003898162000233565b620003948462000248565b81016020851015620003a4578190505b620003bc620003b38562000248565b8301826200034d565b50505b505050565b600082821c905092915050565b6000620003e460001984600802620003c4565b1980831691505092915050565b6000620003ff8383620003d1565b9150826002028217905092915050565b6200041a8262000195565b67ffffffffffffffff811115620004365762000435620001a0565b5b620004428254620001fe565b6200044f82828562000374565b600060209050601f83116001811462000487576000841562000472578287015190505b6200047e8582620003f1565b865550620004ee565b601f198416620004978662000233565b60005b82811015620004c1578489015182556001820191506020850194506020810190506200049a565b86831015620004e15784890151620004dd601f891682620003d1565b8355505b6001600288020188555050505b505050505050565b6200050181620002bb565b82525050565b60006020820190506200051e6000830184620004f6565b92915050565b6115fd80620005346000396000f3fe608060405234801561001057600080fd5b50600436106101005760003560e01c80637b0a47ee11610097578063b88a802f11610066578063b88a802f146102c5578063d82e3962146102cf578063dd62ed3e146102ff578063f11b81881461032f57610100565b80637b0a47ee1461023d57806395d89b411461025b578063a9059cbb14610279578063b6b55f25146102a957610100565b806323b872dd116100d357806323b872dd146101a1578063313ce567146101d157806366666aa9146101ef57806370a082311461020d57610100565b806306fdde03146101055780630700037d14610123578063095ea7b31461015357806318160ddd14610183575b600080fd5b61010d610360565b60405161011a9190610fa5565b60405180910390f35b61013d6004803603810190610138919061102a565b6103ee565b60405161014a9190611070565b60405180910390f35b61016d600480360381019061016891906110b7565b610406565b60405161017a9190611112565b60405180910390f35b61018b6104f8565b6040516101989190611070565b60405180910390f35b6101bb60048036038101906101b6919061112d565b6104fe565b6040516101c89190611112565b60405180910390f35b6101d96107f0565b6040516101e6919061119c565b60405180910390f35b6101f7610803565b6040516102049190611070565b60405180910390f35b6102276004803603810190610222919061102a565b610809565b6040516102349190611070565b60405180910390f35b610245610821565b6040516102529190611070565b60405180910390f35b610263610827565b6040516102709190610fa5565b60405180910390f35b610293600480360381019061028e91906110b7565b6108b5565b6040516102a09190611112565b60405180910390f35b6102c360048036038101906102be91906111b7565b610a54565b005b6102cd610bb1565b005b6102e960048036038101906102e4919061102a565b610e1b565b6040516102f69190611070565b60405180910390f35b610319600480360381019061031491906111e4565b610ecc565b6040516103269190611070565b60405180910390f35b6103496004803603810190610344919061102a565b610ef1565b604051610357929190611224565b60405180910390f35b6000805461036d9061127c565b80601f01602080910402602001604051908101604052809291908181526020018280546103999061127c565b80156103e65780601f106103bb576101008083540402835291602001916103e6565b820191906000526020600020905b8154815290600101906020018083116103c957829003601f168201915b505050505081565b60096020528060005260406000206000915090505481565b600081600760003373ffffffffffffffffffffffffffffffffffffffff1673ffffffffffffffffffffffffffffffffffffffff16815260200190815260200160002060008573ffffffffffffffffffffffffffffffffffffffff1673ffffffffffffffffffffffffffffffffffffffff168152602001908152602001600020819055508273ffffffffffffffffffffffffffffffffffffffff163373ffffffffffffffffffffffffffffffffffffffff167f8c5be1e5ebec7d5bd14f71427d1e84f3dd0314c0f7b2291e5b200ac8c7c3b925846040516104e69190611070565b60405180910390a36001905092915050565b60035481565b6000600660008573ffffffffffffffffffffffffffffffffffffffff1673ffffffffffffffffffffffffffffffffffffffff16815260200190815260200160002054821115610582576040517f08c379a0000000000000000000000000000000000000000000000000000000008152600401610579906112f9565b60405180910390fd5b600760008573ffffffffffffffffffffffffffffffffffffffff1673ffffffffffffffffffffffffffffffffffffffff16815260200190815260200160002060003373ffffffffffffffffffffffffffffffffffffffff1673ffffffffffffffffffffffffffffffffffffffff16815260200190815260200160002054821115610641576040517f08c379a000000000000000000000000000000000000000000000000000000000815260040161063890611365565b60405180910390fd5b81600660008673ffffffffffffffffffffffffffffffffffffffff1673ffffffffffffffffffffffffffffffffffffffff168152602001908152602001600020600082825461069091906113b4565b9250508190555081600660008573ffffffffffffffffffffffffffffffffffffffff1673ffffffffffffffffffffffffffffffffffffffff16815260200190815260200160002060008282546106e691906113e8565b9250508190555081600760008673ffffffffffffffffffffffffffffffffffffffff1673ffffffffffffffffffffffffffffffffffffffff16815260200190815260200160002060003373ffffffffffffffffffffffffffffffffffffffff1673ffffffffffffffffffffffffffffffffffffffff168152602001908152602001600020600082825461077991906113b4565b925050819055508273ffffffffffffffffffffffffffffffffffffffff168473ffffffffffffffffffffffffffffffffffffffff167fddf252ad1be2c89b69c2b068fc378daa952ba7f163c4a11628f55a4df523b3ef846040516107dd9190611070565b60405180910390a3600190509392505050565b600260009054906101000a900460ff1681565b60055481565b60066020528060005260406000206000915090505481565b60045481565b600180546108349061127c565b80601f01602080910402602001604051908101604052809291908181526020018280546108609061127c565b80156108ad5780601f10610882576101008083540402835291602001916108ad565b820191906000526020600020905b81548152906001019060200180831161089057829003601f168201915b505050505081565b600081600660003373ffffffffffffffffffffffffffffffffffffffff1673ffffffffffffffffffffffffffffffffffffffff168152602001908152602001600020541015610939576040517f08c379a0000000000000000000000000000000000000000000000000000000008152600401610930906112f9565b60405180910390fd5b81600660003373ffffffffffffffffffffffffffffffffffffffff1673ffffffffffffffffffffffffffffffffffffffff168152602001908152602001600020600082825461098891906113b4565b9250508190555081600660008573ffffffffffffffffffffffffffffffffffffffff1673ffffffffffffffffffffffffffffffffffffffff16815260200190815260200160002060008282546109de91906113e8565b925050819055508273ffffffffffffffffffffffffffffffffffffffff163373ffffffffffffffffffffffffffffffffffffffff167fddf252ad1be2c89b69c2b068fc378daa952ba7f163c4a11628f55a4df523b3ef84604051610a429190611070565b60405180910390a36001905092915050565b6000600a82610a63919061144b565b14610aa3576040517f08c379a0000000000000000000000000000000000000000000000000000000008152600401610a9a906114c8565b60405180910390fd5b610aad30826108b5565b506000600a82610abd91906114e8565b905080600860003373ffffffffffffffffffffffffffffffffffffffff1673ffffffffffffffffffffffffffffffffffffffff1681526020019081526020016000206000016000828254610b1191906113e8565b9250508190555042600860003373ffffffffffffffffffffffffffffffffffffffff1673ffffffffffffffffffffffffffffffffffffffff168152602001908152602001600020600101819055503373ffffffffffffffffffffffffffffffffffffffff167f20df459a0f7f1bc64a42346a9e6536111a3512be01de7a0f5327a4e13b33703882604051610ba59190611070565b60405180910390a25050565b6000610bbc33610e1b565b9050600554811115610c03576040517f08c379a0000000000000000000000000000000000000000000000000000000008152600401610bfa90611565565b60405180910390fd5b42600860003373ffffffffffffffffffffffffffffffffffffffff1673ffffffffffffffffffffffffffffffffffffffff1681526020019081526020016000206001018190555080600960003373ffffffffffffffffffffffffffffffffffffffff1673ffffffffffffffffffffffffffffffffffffffff1681526020019081526020016000206000828254610c9991906113e8565b925050819055508060056000828254610cb291906113b4565b9250508190555080600660003073ffffffffffffffffffffffffffffffffffffffff1673ffffffffffffffffffffffffffffffffffffffff1681526020019081526020016000206000828254610d0891906113b4565b9250508190555080600660003373ffffffffffffffffffffffffffffffffffffffff1673ffffffffffffffffffffffffffffffffffffffff1681526020019081526020016000206000828254610d5e91906113e8565b925050819055503373ffffffffffffffffffffffffffffffffffffffff163073ffffffffffffffffffffffffffffffffffffffff167fddf252ad1be2c89b69c2b068fc378daa952ba7f163c4a11628f55a4df523b3ef83604051610dc29190611070565b60405180910390a33373ffffffffffffffffffffffffffffffffffffffff167f106f923f993c2149d49b4255ff723acafa1f2d94393f561d3eda32ae348f724182604051610e109190611070565b60405180910390a250565b600080600860008473ffffffffffffffffffffffffffffffffffffffff1673ffffffffffffffffffffffffffffffffffffffff1681526020019081526020016000206040518060400160405290816000820154815260200160018201548152505090506000816020015142610e9091906113b4565b9050600082600001516004546201518084610eab91906114e8565b610eb59190611585565b610ebf9190611585565b9050809350505050919050565b6007602052816000526040600020602052806000526040600020600091509150505481565b60086020528060005260406000206000915090508060000154908060010154905082565b600081519050919050565b600082825260208201905092915050565b60005b83811015610f4f578082015181840152602081019050610f34565b60008484015250505050565b6000601f19601f8301169050919050565b6000610f7782610f15565b610f818185610f20565b9350610f91818560208601610f31565b610f9a81610f5b565b840191505092915050565b60006020820190508181036000830152610fbf8184610f6c565b905092915050565b600080fd5b600073ffffffffffffffffffffffffffffffffffffffff82169050919050565b6000610ff782610fcc565b9050919050565b61100781610fec565b811461101257600080fd5b50565b60008135905061102481610ffe565b92915050565b6000602082840312156110405761103f610fc7565b5b600061104e84828501611015565b91505092915050565b6000819050919050565b61106a81611057565b82525050565b60006020820190506110856000830184611061565b92915050565b61109481611057565b811461109f57600080fd5b50565b6000813590506110b18161108b565b92915050565b600080604083850312156110ce576110cd610fc7565b5b60006110dc85828601611015565b92505060206110ed858286016110a2565b9150509250929050565b60008115159050919050565b61110c816110f7565b82525050565b60006020820190506111276000830184611103565b92915050565b60008060006060848603121561114657611145610fc7565b5b600061115486828701611015565b935050602061116586828701611015565b9250506040611176868287016110a2565b9150509250925092565b600060ff82169050919050565b61119681611180565b82525050565b60006020820190506111b1600083018461118d565b92915050565b6000602082840312156111cd576111cc610fc7565b5b60006111db848285016110a2565b91505092915050565b600080604083850312156111fb576111fa610fc7565b5b600061120985828601611015565b925050602061121a85828601611015565b9150509250929050565b60006040820190506112396000830185611061565b6112466020830184611061565b9392505050565b7f4e487b7100000000000000000000000000000000000000000000000000000000600052602260045260246000fd5b6000600282049050600182168061129457607f821691505b6020821081036112a7576112a661124d565b5b50919050565b7f496e73756666696369656e742062616c616e6365000000000000000000000000600082015250565b60006112e3601483610f20565b91506112ee826112ad565b602082019050919050565b60006020820190508181036000830152611312816112d6565b9050919050565b7f416c6c6f77616e63652065786365656465640000000000000000000000000000600082015250565b600061134f601283610f20565b915061135a82611319565b602082019050919050565b6000602082019050818103600083015261137e81611342565b9050919050565b7f4e487b7100000000000000000000000000000000000000000000000000000000600052601160045260246000fd5b60006113bf82611057565b91506113ca83611057565b92508282039050818111156113e2576113e1611385565b5b92915050565b60006113f382611057565b91506113fe83611057565b925082820190508082111561141657611415611385565b5b92915050565b7f4e487b7100000000000000000000000000000000000000000000000000000000600052601260045260246000fd5b600061145682611057565b915061146183611057565b9250826114715761147061141c565b5b828206905092915050565b7f4465706f736974206d7573742062652061206d756c7469706c65206f66203130600082015250565b60006114b2602083610f20565b91506114bd8261147c565b602082019050919050565b600060208201905081810360008301526114e1816114a5565b9050919050565b60006114f382611057565b91506114fe83611057565b92508261150e5761150d61141c565b5b828204905092915050565b7f4e6f7420656e6f756768207265776172647320696e20706f6f6c000000000000600082015250565b600061154f601a83610f20565b915061155a82611519565b602082019050919050565b6000602082019050818103600083015261157e81611542565b9050919050565b600061159082611057565b915061159b83611057565b92508282026115a981611057565b915082820484148315176115c0576115bf611385565b5b509291505056fea26469706673582212202b2c8a5ad0484fa7813fa0ba9d601199e3cadfad22d7a26a0e9bc7435223d18264736f6c63430008180033",
  "linkReferences": {},
  "deployedLinkReferences": {}
}